:040000000C94560006
:100004000C9400000C9400000C9400000C9400006C
:100014000C9400000C9400000C9400000C9400005C
:100024000C9400000C9400000C9400000C9400004C
:100034000C9400000C9400000C9400000C9400003C
:100044000C9400000C9400000C9400000C9400002C
:1000540000FFFF1B3B6FCE8000FFFFDBDBDBDB0021
:1000640000E3F3DBCFC7C70000FCFE3333FEFC0024
:10007400007EFFC3D3D37600007EFFC3C3FF7E00A0
:10008400007EFFC3C3FF7E0000FFFF1E70FFFF0062
:1000940000FFFFDBDBDBDB0000FFFF1B3B6FCE80E1
:1000A4005000600254000000F894EE27ECBBF1E02D
:1000B400FBBFEBBFE5BF8DE0A2E0BB27ED938A95C4
:1000C400E9F780E098E0A0E6ED930197E9F7E4EA28
:1000D400F0E085919591009761F0A591B591059017
:1000E4001590BF01F00105900D920197E1F7FB0116
:1000F400F0CFEFE5EDBFE8E0EEBFC0E6D2E00C9450
:10010400D000AA93E981EBBBE881E8BB88EE93E0D9
:100114000197F1F7229608950E94EC0000E010E0A8
:100124000835E0E01E07B4F540E050E04A30E0E076
:100134005E076CF520E030E02830E0E03E0724F56F
:100144002397F801E21BF30BE983FA83AA81AA231C
:1001540032F0A981BA81A035E0E0BE070CF006C0F8
:10016400E981FA81E05AFD4FE08101C0E0E0E883D3
:10017400E22FA1E00E94E400E095EA93A981C1DFA7
:1001840023962F5F3F4FD8CF4F5F5F4FCFCF0F5F87
:100194001F4FC6CF0E94F30026960895EFEFEABBE7
:1001A400E7BBBADFA4EFB1E00E94DA00FACFFFCFD9
:1001B400109639F080ED97E00197F1F7A895119723
:1001C400C9F70895EE230E2EEA2F19F0EE0F0A94C4
:1001D400E9F708955A934A933A932A931A930A9300
:1001E40008955D814C813B812A811981088108959C
:00000001FF
